:1000000003C003C003C003C003C003C003C003C0D8
:1000800033C355C354C353C352C351C350C34FC3E7
:100090004EC34DC34CC34BC34AC349C348C317C027
:1000A000197A1085931509021200010100803209A6
:1000B000040000000000000012011001FF00000811
:1000C000D0165307040200000001040309041124A0
:1000D0001FBECFEFD2E0CDBFDEBF21E0A0E0B1E098
:1000E00001C01D92AC32B207E1F7ACC1DC018FEF69
:1000F0009FEF332715C02D912827722F2295272790
:10010000822F2695269528272395227032177795DA
:100110002795822F8927972F7695279597278227CE
:10012000615048F7809590950895E0DF8D939D93F9
:100130000895CF93CFB7CF93C395B19BE9F7B19B08
:1001400009C0B19B07C0B19B05C0B19B03C0B19B67
:1001500001C0A7C0DF93C0910E01DD27CA5EDE4F4C
:10016000B19B02C0DF91EBCF2F930F931F9306B388
:100170002FEF01FB20F94F933F9316B34FEF012769
:1001800001FB21F93BE031C04E7F012F16B3216006
:1001900028C0102F4D7F2260000006B329C04B7F7E
:1001A0002460012F000016B32BC016B3477F2860D0
:1001B0002AC04F7E06B320612CC04F7D16B320624B
:1001C0002FC04F7B06B3206432C0422706B3499349
:1001D0004FEF0000102711FB20F916B31370C9F17F
:1001E000297F91F2012701FB21F906B3237F89F2D0
:1001F000315058F1102711FB22F916B3277E79F2FE
:10020000012701FB23F92F7C81F206B3102711FB94
:1002100024F92F7971F200C016B3012701FB25F9EB
:100220002F7359F200C006B3102711FB26F92230B4
:1002300040F200C016B3012701FB27F9243028F64D
:100240004F77206816B30000F9CF10E21ABF0027DD
:100250001DC03B503195C31BD04010E21ABF08812E
:10026000033C19F10B3409F120910C011981110F94
:100270001213EDCF093641F10D3211F0013E39F77D
:10028000CAE01AB715FD02C0CA95D9F70093140148
:100290003F914F911F910F912F91DF91CAB7C5FDEB
:1002A0004BCFCF91CFBFCF9108952091140122233E
:1002B00079F3109112011123E1F43430E2F030931C
:1002C000120120930D0117C00091120101308CF42E
:1002D0000AE530910F0134FD10C000930F01C1E019
:1002E000D1E00FC02795A8F45150A9F4220F0000C7
:1002F000F9CF4AE503C042ED01C0432FC4E1D0E08D
:1003000032E017B31360C19A17BB08B320E413E0BF
:100310005F93012756E008BB279520F4515021F444
:10032000220FF9CF012756E000003B5A08BBD0F25C
:10033000279528F4515029F4220F0000F9CF012706
:1003400056E0279508BB20F4515021F4220FF9CF35
:10035000012756E02991332308BB21F60C7F109129
:100360001301110FC651D04008BB11F010930C01BE
:1003700010E21ABF026017B31C7F402F4C7F5F91C1
:1003800000C000C008BB17BB48BB82CF2FEFB0E84E
:10039000A0E04AE0B093740000008EE599E0B199C6
:1003A000FECFB19BFECF0197B199FDCF97FF03C060
:1003B000BA1B819501C0BA0FA69541F4A0E430F4B0
:1003C000281718F030917400282FA1E0415011F740
:1003D0003093740000000895F201309791F02AE7FD
:1003E000421629E1520619F48091740090E021E050
:1003F0000C0120935700E8951124CF0102962C019F
:1004000008958FEB9CECF3CF14BE88ED80937100C0
:1004100087E081BDB99A2FE78CEF9AE021508040A8
:100420009040E1F700C00000B9988AE580930F0181
:100430008FEF8093000180B5816080BD8BB78062B3
:100440008BBF089520907400EAE7F9E1E491EF3F53
:1004500019F0E0937400000004B601FC06C0EDE75B
:10046000F9E1E491EF3F09F046C0CEDFC298712C6C
:10047000312C512C412CC0EADFE014E686B38370A6
:1004800009F014E6115029F41092130110920C0196
:100490007DDF0AB605FE34C04CDE80E28ABFA89537
:1004A000809174002092740022E032120CC0E0E8C7
:1004B000F9E1E054F10993E090935700E895309703
:1004C000C1F7512C412C90E439120AC0F201329745
:1004D000E03829E1F20720F495E090935700E89581
:1004E0008093740084E038120FC0CD2B71F4BA9859
:1004F0008BDF1BBE10BC209274000000CECDFFCF5E
:10050000219709F0BBCFCBCF312C809112018350C2
:1005100087FD2BC090910D019D3229F5883019F58A
:1005200083EC809301018AE580930F01809117018C
:10053000807690911801882309F48DC0712C911157
:1005400064C082E899E1909311018093100186E0E4
:1005500090911E01911105C090911D01981708F40A
:10056000892F809300011092120180910F0184FF66
:1005700030C0809100018F3F61F1C82F893008F0B1
:10058000C8E0982F9C1B909300019091010128E8EE
:10059000922790930101882381F0E0911001F0915E
:1005A0001101A2E0B1E08C2F94919D93319681507E
:1005B000D9F7F0931101E09310016C2F82E091E0E4
:1005C000B4DDCC5FCC3019F08FEF80930001C09385
:1005D0000F01C30101963C01803B24E0920731F4F6
:1005E000EDE7F9E1E491EF3F09F081CF8C7409F474
:1005F00079C0BA980AB605FE3ECF85E1B19B85E188
:100600008150E1F780E28ABF36CF913079F441140E
:10061000510411F480E09CCF80911B01807F482E13
:1006200050901C0181E187BFE895F4CF933081F4AD
:100630008091190190911A01CFDE80911B01909158
:100640001C01CADE842D8F7029F790E4392E80CFEB
:100650009F73392EDFCF2091190110920A01911159
:100660000AC010920B012AE031E082E030931101C0
:10067000209310016DCF953029F4209313012AE0C7
:1006800031E0F4CF9630F1F480911A01813041F4D9
:100690008AE999E1909311018093100182E158CF8A
:1006A000823019F488E899E1F5CF833009F0B2CFB0
:1006B0002111B0CF8CEA99E1909311018093100140
:1006C00084E046CF983051F0993019F42093150109
:1006D000D6CF81E09A3099F280E0D1CF25E131E0A8
:1006E00081E0C4CFBA9A86CF00000000000000006D
:1006F00000000000000000000000000000000000FA
:10070000000000000000000011241FBECFE5D2E071
:10071000DEBFCDBF10E0A0E6B0E0EEE7F9E002C03A
:1007200005900D92A236B107D9F711D126C1A8CCF8
:10073000009709F40895EDE1F0E13197F1F70197A1
:10074000F7CF807C9B01205C3F4FDB01FC01E61B67
:10075000F70BEA0FFB1F459154914D935D93A21740
:10076000B307A1F70895FC01E07C93E09093570054
:10077000E89507B600FCFDCF0895CF93DF939B016A
:10078000205C3F4FDB01FC01E61BF70BEA0FFB1F70
:10079000CD91DD9141E00E0140935700E895112481
:1007A000A217B30781F725E0FC0120935700E895D5
:1007B00007B600FCFDCFDF91CF910895CF93DF9373
:1007C000CDB7DEB7C054D1090FB6F894DEBF0FBE67
:1007D000CDBFBE016F5F7F4F90E080E0B2DF8FEF53
:1007E0009FEF9A83898390E080E0BDDFBE016F5F59
:1007F0007F4F90E080E0C1DFC05CDF4F0FB6F89420
:10080000DEBF0FBECDBFDF91CF9108950F931F9331
:10081000CF93DF93CDB7DEB7C054D1090FB6F894AC
:10082000DEBF0FBECDBF10E000E00038F6E01F07CE
:1008300061F4C05CDF4F0FB6F894DEBF0FBECDBFD2
:10084000DF91CF911F910F91089530E020E0F801E2
:10085000E256FF4FE20FF31FC9018E7F46E0E83EEC
:10086000F40720F161E070E06C0F7D1F860F971F89
:100870004FEF5FEFFC01518340832E5F3F4F2034E9
:10088000310529F78091600090916100800F911FE0
:100890006ADF8091600090916100BE016F5F7F4FC1
:1008A000800F911F6ADF005C1F4FBFCF45915491AD
:1008B00061E070E06C0F7D1F860F971FDBCF0F93F9
:1008C0001F93CF93DF93CDB7DEB7C054D1090FB6D6
:1008D000F894DEBF0FBECDBF8091600090916100A3
:1008E0009695879581509044FE0131969E012F5B2D
:1008F0003F4F8F0181939193E217F307D9F790E06F
:1009000080E031DFB80190E080E037DFC05CDF4F8E
:100910000FB6F894DEBF0FBECDBFDF91CF911F9110
:100920000F910895CF9387B3836087BBC198CAEFB7
:1009300081E090E0FDDEC19A81E090E0F9DEC198AF
:10094000C150B1F7CF910895F0E0E0E0099488B389
:1009500018BA87B38FEF87BB8AEF90E0E9DE87B3E1
:1009600017BA8AEF90E0E4DEF89428DF4FDFA7DFC4
:0E097000D9DFEADF90E080E00895F894FFCF31
:02097E008019DE
:040000030000008079
:00000001FF
